:03000000020158A2
:10000300EEC0E0EFC0E088F0E58124FDF8ECC6C067
:09001300E008EDC6C0E0A8F022EF
:10001C00740418C8C9C8C5F0C8C0E0E608F709D50B
:07002C00F0F918D0E0F92201
:100033007404C0F018F5F0E709F608D5F0F919D003
:03004300E0F822C0
:10004600740288F0A8812581F58118E6C0E008E6EB
:03005600C0E022E5
:1000590075F004D083D082E493F6A308D5F0F8189C
:05006900C082C08322EB
:10006E0075F004D083D082E493F7A309D5F0F81984
:05007E00C082C08322D6
:100083007404D083D082C0F018F5F08001A3E49308
:0E009300F608D5F0F8A3D0E0F8C082C08322B2
:1000A100CD30E11520E00FC083C08288828C83CDE2
:0C00B100F0D082D08322CDF222CDF622C6
:1000BD00CB30E11520E00FC083C08289828A83CBCB
:0C00CD00F0D082D08322CBF322CBF722AC
:0400D90011A101E18F
:0400DD0011BD01E769
:0600E10008B800010C222A
:0600E70009B900010A2224
:0C00ED00E0A3FCE0A3FDE0A3FEE0FF2286
:0C00F900E608FCE608FDE608FEE6FF2233
:0C010500E709FCE709FDE709FEE7FF221F
:0C011100ECF608EDF608EEF608EFF6221A
:0C011D00ECF709EDF709EEF709EFF72207
:10012900D083D082E493A3FCE493A3FDE493A3FEDC
:09013900E493A3FFC082C08322FD
:08014200EC30E70312014A2230
:0E014A00C3E49FFFE49EFEE49DFDE49CFC22C6
:0F01580075811CE478FFF6D8FD75A0FF020E8DAF
:1001670074072581F581120003EBC0E0EAC0E0E9DE
:10017700C0E074F52581F9770074FA2581F9E7C0A5
:10018700E009E7C0E009E7C0E009E7C0E0E4FFFEF7
:0A019700FCFD1209A4BF0102801F45
:1001A10074FE2581F9E7FD09E7FC09E7F8E412008F
:1001B100D91200A1FCFDFEFF74F22581F58122E434
:1001C100C0E0C0E0C0E0743FC0E074F62581F912E0
:0801D10001051209A4BF012A77
:1001D90074F52581F97701E4C0E0C0E07480C0E0DE
:1001E900743FC0E074F62581F9120105120B5574AC
:1001F900FD2581F818181812011174F42581F919CF
:10020900E4F709F774F92581F8181818120059004C
:1002190000803F74F62581F8E6C0E008E6C0E008F2
:10022900E6C0E008E6C0E074F62581F81200F9128C
:1002390009A4BF0102803774F42581F907E7197011
:10024900010774F62581C0E074F52581F8E6C0E060
:1002590008E6C0E008E6C0E008E6C0E0E4FCFDFE10
:100269007440FF12073BD0E0F812011180A574F524
:060279002581F9E7606138
:10027F0074F42581F9E7FA7401C39AFBE41997FA2C
:10028F0074FE2581F9E7FD09E7FC09E7F8EA12009A
:10029F00D9EB1200A174F62581F9E7C0E009E7C098
:1002AF00E009E7C0E009E7C0E0E4FCFDFE743FFFB2
:1002BF0012073BECC0E0EDC0E0EEC0E0EFC0E07431
:1002CF00F62581F81200F9120B5574F22581F5818C
:0102DF0022FC
:1002E00074F32581F9E7FC09E7FD74FE2581F8E642
:1002F000FB08E6FA08E6F9EC1200DDED1200BD7429
:10030000FA2581F9E7C0E009E7C0E009E7C0E009A4
:10031000E7C0E074F22581F81200F9120B5574F26F
:050320002581F581229A
:1003250074062581F58112000374FD2581F91200FB
:1003350046120033E4FCFDFEFF1209A4BF01028052
:100345000F7CFE7DFF7E7F7FFF74F62581F5812280
:1003550074FD2581F912010574FB2581F97B01E402
:10036500FA120167A88118181812011174FD258168
:10037500F91200461200337CF37D047E357F3F126F
:1003850009A4BFFF2E74FD2581F9C0E012004612B5
:100395000033E4FEFCFD7440FF12073BD0E0F81289
:1003A500011174FC2581F9E724FFFB19E734FFF7F8
:1003B50009EBF774FD2581F9120046120033E4FCC0
:1003C500FD7480FE743FFF1209EE12000374F925D7
:1003D50081F812004612001CE4FCFD7480FE743F97
:1003E500FF1209F7120B55A881181818120111747C
:1003F500FD2581F91200461200331919191201055C
:1004050012073B74FA2581F919191912011D74FB9C
:100415002581F9E733E4500114FCFDE7FE09E7FF08
:100425001208D61200037C187D727E317F3F1207B9
:100435003B12000374F92581F812004612001C7462
:10044500EF2581F812004612001C7C267D427E6550
:100455007F3F12073B1200037C4E7D117E547FC007
:100465001209F712000374EB2581F81200461200F9
:100475001C7C4D7D117ED47FBF1209F7120B5512DE
:10048500073B1209F774F62581F58122120325121F
:0D0495000046120083D95BDE3E12073B22B9
:1004A2009E92DA331160B135FEE57F3789842139B6
:1004B200FFC3AE3A5B951D3C4758633DF0FD753E68
:1004C2001872313F0000803F00000000BE8009EF3B
:1004D20030E705E4FFFEFDFC22EE33EF330460EC6F
:1004E2001200461200833BAAB83F12073BEE33EFDD
:1004F2003392D5247B501BA2D5700B5015EE44804D
:100502002404500EA2D540CBA2D574FF13FF7E80E7
:1005120080C4C0E0120003120917E58124FCF8EF41
:10052200F6F404FC1209731209F79004A275F00A9A
:10053200120C74EE33CF3392D5D0F025F0A2D570E1
:0705420001C313CF13FE22D9
:100549001200031200461200838096184B1209A468
:10055900EF70028024046021E58124FDF87904E626
:10056900C0E008D9FA120129809618CB1209A4EF24
:1005790070028005046002800DD0E0FFD0E0FED05B
:10058900E0FDD0E0FC22D0E0FFD0E0FED0E0FDD0DD
:10059900E0FCEF30E70D120046120083000080BF37
:0705A9001209F71208D1222C
:1005B00005810581058112000374FC2581F977000E
:1005C00074FD2581F9E7C0E009E7C0E009E7C0E074
:1005D00009E7C0E0E4FFFEFCFD1209A4BF000CE443
:1005E000FFFEFCFD74F92581F5812274FD2581F95A
:1005F000E7C0E009E7C0E009E7C0E009E7C0E0E4E0
:0F060000FCFDFEFF1209A4BFFF02800302070CDE
:10060F0074F42581F9E7C0E009E7C0E009E7C0E02D
:10061F0009E7C0E01919191201051205491209EE6F
:10062F00EC4D4E4F600CE4FCFDFEFF74F92581F597
:10063F00812274F42581F9E7C0E009E7C0E009E7FA
:10064F00C0E009E7C0E0E4FFFEFCFD1209A4BFFF14
:10065F000774FC2581F9770174F42581F9120105DE
:10066F0012091712014274FB2581F818EEF608EFF4
:10067F00F674F72581F919191912006E0000803FE1
:10068F0074FA2581F9E70947603974F42581C0E0D0
:10069F0074F32581F9E7C0E009E7C0E009E7C0E09E
:1006AF0009E7C0E074F82581F81200F912073BD072
:1006BF00E0F812011174FA2581F808E6161870C0D7
:1006CF001680BD74FC2581F9E76023E4C0E0C0E02B
:1006DF007480C0E0743FC0E074F02581F912010509
:1006EF00120B5574F72581F818181812011174F4AC
:1006FF002581F912010574F92581F5812274F425FC
:10070F0081F9E7C0E009E7C0E009E7C0E009E7C009
:10071F00E074F92581F81200F912032512073B1234
:09072F0004DB74F92581F5812237
:100738001200EDEF4E601AE58124FEF924FEF8E779
:1007480019477019EE33EF33B4FF03020895020816
:1007580099E58124FDF8E63308E63380EB1208B703
:10076800248150082B5008A2D502088D2B50DFF7A2
:10077800FAE61846197020B7800DEE33CAA2D513D1
:10078800FFCA13FE0208A6EC4D703CBE8046E6FC8C
:1007980008E6FD08E680E4EC4D7039BE800280EE84
:1007A800E4CEC7CDC6F5F008E4C6CCF9FBFFFA8065
:1007B80076E4CEC9E4CDCAE4FFCCFB803CE4C9CDE5
:1007C800CFCBECCACC8060E4F9FAFBFFCECDCCC528
:1007D800F00880538CF0E660D8A4C5F0CDFAC5F0D7
:1007E800E6A42DCEF9C5F03400FDE6A42DC5F034FD
:1007F80000FDCCFBC5F0CC7F0008E660C0A42EC588
:10080800F03C50010DCAFCC5F0CEE6A42AC5F03D67
:1008180050010FC9FDC5F0CAE6A429C5F03F79010A
:10082800400119CBC5F0CF08E6A42AC5F03F500512
:100838000BBB000109CCC5F0FAE6A42CC5F03B506F
:100848000109CDC5F0CCE6A42DFDC5F039FE33086D
:10085800500906B60011A2D502088DEA33FAEC3326
:10086800FCED33FDEE33FEEA30E7140CBC00100D4E
:10087800BD000C0EBE000806B60004A2D580D9E65D
:05088800A2D50208A04A
:10088D0074FF13FF7E80800774FF8001E4FFFEFD7F
:10089D00FC800613FFEE92E7FED0E0F8D0F0E58184
:1008AD0024FCF581C0F0E8C0E022E7D2E7C73309A8
:1008BD00E733FB92D592D1EED2E7CE33EF33FF5033
:0408CD0002B2D5227C
:1008D1001209178000EC3392D550031209057A20D2
:1008E100C3EC20E712EF33FFEE33FEED33FDEC33C3
:1008F100FC20E703DAEF22EA247DA2D513FFEC9274
:10090100E7CEFC22E4C39FFFE49EFEE49DFDE49C50
:10091100FC22C2D580C8EED2E7CE33EF3392D52484
:1009210081400CE4C2D5A2D513FC33FDFEFF222485
:10093100E0500474FF80EFF404FAE4CCCDCECF8014
:100941000DC3EF13FFEE13FEED13FDEC13FCDAF113
:1009510020D507EECDFEEFCCFF22E4C39CFCE49D45
:10096100FDE49EFEE49FCCFFEECDFE22EFC2E7FF49
:1009710080A47A083392D5E4FDFEFF30D503120935
:1009810006EC334010EF33FFEE33FEED33FDEC3375
:10099100FCDAEE80BEEA247EA2D513CC92E7CDCE5E
:0309A100FF80B024
:1009A400E58124FEF88FF063F080E6F96480B5F009
:1009B4001B188EF0E6B5F014188DF0E6B5F00D189E
:1009C4008CF0E6B5F006E4FFFE0208A68FF030F7DF
:1009D4000689F030F701B340077F017E000208A6C4
:0709E40074FFFFFE0208A6EC
:1009EB001200EDEFB2E7FF80031200EDE58124FD6D
:1009FB00F8F9E63308E63370060208A602089504F8
:100A0B0060FAEE33EF33700EE6FF18E6FE18E6FDE4
:100A1B0018E6FC0208A60460E3E58124FBF8D3EC9E
:100A2B009608ED9608EE9608EFC2E786F0C2F795AA
:100A3B00F0400FEFC6FF18EEC6FE18EDC6FD18EC22
:100A4B00C6FC1208B7C3EB9FF5F0700EE58124FBD3
:100A5B00F9E4C3CC20D573020B269418605C400ECE
:100A6B00E4FF19E7FE19E7FD19E7FC020B02E4FFAF
:100A7B0030F405CEFCE4CDFF30F305E4CECDCCCF86
:100A8B0030F21AE5D054184404F8EF54F0D6C4FFF2
:100A9B0008ECD6C4FC08EDD6C4FDEEC4FE740355B9
:100AAB00F06012F5F0C3EE13FEED13FDEC13FCEF4B
:100ABB0013FFD5F0F030D55D8009E4CEFFE4FDFCEB
:100ACB0030D552C3E49FCC191919C797CD09C797D5
:100ADB00CE09C797FF4E4D4C70140208A6DB0302DC
:100AEB000899EC2CFCED33FDEE33FEEF33FFEF30CA
:100AFB00E7EBECCFCECDFCEF30E70D0CBC00090DD6
:100B0B00BD00050EBE00010BEB7005A2D102088DD6
:100B1B00A2D10208A0E42FCC19191937CD0937CE71
:100B2B000937FF50090BEB700CA2D102088DEFCEE9
:100B3B00CDCCFF80C2EF13CE13CD13CC13FF80B7F8
:100B4B00D083D0820208991200EDEFC2E74E7003FA
:100B5B00020895C082C083E58124FBF8F9E60846BC
:100B6B0060DE1208B70FBF0006D083D08280E1EFA2
:100B7B0024805007C3CB9B500D80C5CB9B4007D027
:100B8B0083D08202088DF6F583EC4D701FBE801C5E
:100B9B00E58124FBF8E583A2D513FFE692E7FE1867
:100BAB00E6FD18E6FCD083D0820208A6E58124FB83
:100BBB00F8E6CEF618E6CDF618E6CCF6EFCCFFE865
:100BCB002402F9F8E7FA19E7FB19E7FCE4F5F075ED
:100BDB00821A758380801DE58303F58330E706A7B2
:100BEB00F009E4F5F0C3EF33FFED33FDEE33FE40D8
:100BFB000C30E717C3EF9CED9BEE9A400EC3EF9CB6
:100C0B00FFED9BFDEE9AFEE58342F0D582C9E7FA34
:100C1B0019E9F81919E720E7191ABA0003020B4B67
:100C2B00E5F025F0FFE633FC18E633FD18E633FE5E
:100C3B008009FE09E7FDE6FCE5F0FFEF30E7160C57
:100C4B00BC00120DBD000E0EBE000A0A7007D08349
:0F0C5B00D08202088DEAA2D5D083D0820208A0F1
:100C6A00C0F012000312073BD0F0E4CCC0E0E4CDA0
:100C7A00C0E0E4CEC0E0E4CFC0E0C0F08012C0F033
:100C8A00E58124FCF87904E6C0E008D9FA12073BAA
:100C9A007904E493C0E0A3D9F91209F7D0F0D5F0AA
:080CAA00DD74FC2581F58122B7
:100CB200758AF5758CFFD28C308DFDC28CC28D2267
:080CC200758901C28DC28C226C
:100CCA00C2A0D2A1C2A2D2A3C290D291C292D293FE
:010CDA0022F7
:100CDB00D2A0C2A1D2A2C2A3C290D291C292D293ED
:010CEB0022E6
:100CEC00C2A0D2A1C2A2D2A3D290C291D292C293DC
:010CFC0022D5
:100CFD00C2A0C2A1C2A2C2A3C290C291C292C2930B
:010D0D0022C3
:100D0E00120CC2D2A4120CB2C2A430A5FDD28C30E9
:100D1E00A503308DFAC28CE4C0E0C0E074C0C0E020
:100D2E00C0E0E4FCFD7420FE7441FF1205B074FCBB
:100D3E002581F581C004C005C006C0077C487DE151
:100D4E007E8A7F3F12073BC004C005C006C007E481
:100D5E00FC7DFC7E057F4712073B8C148D158E168D
:100D6E008F17E58CFAE58AFDC002C005E4FCFDD0C4
:100D7E0007D0061209138C188D198E1A8F1BC014EA
:100D8E00C015C016C01712073BC004C005C006C070
:100D9E0007E4FEFCFD743FFF12073B8C188D198E85
:0C0DAE001A8F1BAC18AD19AE1AAF1B2237
:010DBA002216
:010DBB002215
:100DBC00120D0E8C088D098E0A8F0B120DBA850838
:100DCC000C85090D850A0E850B0F120DBB850810BD
:100DDC00850911850A12850B13C00CC00DC00EC0FD
:100DEC000FE4FCFD7420FE7442FF1209A4BF013312
:100DFC00C008C009C00AC00BE4FCFD74A0FE74411D
:100E0C00FF1209A4BF011CC010C011C012C013E412
:0E0E1C00FCFD74A0FE7441FF1209A4BF010585
:100E2A00120CCA808DC008C009C00AC00BAC10AD34
:100E3A0011AE12AF131209A4BF011DC008C009C028
:100E4A000AC00BE4FCFD74A0FE7441FF1209A4BFA2
:020E5A0001068F
:100E5C00120CDB020DBCC010C011C012C013AC08C8
:0C0E6C00AD09AE0AAF0B1209A4BF0106CD
:060E7800120CEC020DBC9F
:0C0E7E00120CEC120CB2120CB2120CB2EE
:030E8A00020DBC9A
:060E8D00C294C296D2954A
:030E930030950790
:070E9600120DBCD29480F69E
:080E9D00D29630B30830B40511
:0B0EA500120CCA80E920B30830B4052D
:0B0EB000120CDB80DE30B30820B4051C
:050EBB00120CEC80D3D5
:050EC000120CFD80CEC4
:00000001FF
